:020000040800F2
:10000000480500207D0100082102000819020008AF
:100010001D02000811020008D909000800000000B4
:10002000000000000000000000000000FD050008C6
:100030001502000800000000250200080106000863
:100040009701000897010008970100089701000830
:100050009701000897010008970100089701000820
:100060009701000897010008970100089701000810
:100070009701000897010008970100089701000800
:100080009701000897010008000000009701000890
:1000900097010008970100089701000897010008E0
:1000A000970100089701000897010008C10900089E
:1000B000CD090008000000009701000800000000C2
:1000C0009701000800000000970100089701000850
:1000D0009701000897010008970100080000000040
:1000E00000000000000000009701000897010008D0
:1000F0009701000897010008970100089701000880
:1001000097010008000000000000000097010008AF
:1001100000000000000000000000000000000000DF
:1001200000000000000000000000000000000000CF
:1001300000000000000000000000000000000000BF
:1001400000000000000000000000000000000000AF
:10015000000000000000000097010008970100085F
:100160009701000897010008DFF80CD000F032F882
:1001700000480047450D0008480500200648804714
:1001800006480047FEE7FEE7FEE7FEE7FEE7FEE77C
:10019000FEE7FEE7FEE7FEE7050600086901000846
:1001A00040EA01039B0703D009E008C9121F08C0F9
:1001B000042AFAD203E011F8013B00F8013B521E79
:1001C000F9D27047421C10F8011B0029FBD1801A9C
:1001D00070470000064C074D06E0E06840F0010360
:1001E00094E8070098471034AC42F6D3FFF7C0FFFD
:1001F000081100082811000880B500F0C9FE4FF46E
:10020000A06000F005FEBDE8804000F0A7BA000045
:10021000FEE7000070470000FEE70000FEE7000078
:10022000704700007047000080B582688A423CBF7A
:10023000002080BD0368D0F810C003EB010EBEEBB8
:100240000C03A2EB010138BF7346036081600120FB
:1002500080BD00002DE9F04F88B086468068801A86
:1002600010F1010A00F0D4806FF0070000EBC2002B
:100270008846DEF80030C140DEF80C40002ACFB2DC
:1002800000F0B580511E07FA00F501F00300DEF81A
:1002900010C005906FF00F00961E00EBC200039691
:1002A000ACF1010621F0030C009001200495CDE98A
:1002B000018ACDE906720BE0069FC14500F0AD80D2
:1002C00001330130B34288BF0023504500F2A480BF
:1002D000E15CB942F4D1012AA946EDD003F1010B4A
:1002E000B34588BF4FF0000B0399032905D20127BE
:1002F000A946059900293ED1DEE7DDF800804FF0E0
:10030000000EA94614F80B100BF10105B54288BF89
:100310000025675D01FA08F1A8F1080241EA090128
:1003200007FA02F211436A1CB24288BF0022A55CA0
:10033000A8F11007BD4001322943B24288BF002214
:10034000A55CA8F1180702F1010BBD40B3450EF101
:10035000040E45EA010988BF4FF0000BF445A8F1EF
:100360002008CFD1DDE9018A079A049D0EF101072B
:1003700005990029A0D0F9433D46079F14F80B20AA
:100380003944C900C64602FA01F80BF101012F46B3
:10039000049DB14288BF0021059A49EA0809012A53
:1003A000079AF0463FF488AF3D46079F625CA7EB93
:1003B000050B6FF00F0707EBCB0702FA07F8DDE933
:1003C000045249EA0809022A079AF0463FF474AF3A
:1003D00001312246B14298BF0A4411786FF01702EA
:1003E00002EBCB029140079A49EA010964E7012038
:1003F000E15CB94208BFB8F1000F0ED0DEF8101072
:100400000133013901308B4288BF00235045EFD9B9
:10041000002008B0BDE8F08F002008B0BDE8F08FE4
:100420008068704703460020C3E90000C3E9020169
:10043000012A88BF01201A61704700002DE9F043AE
:1004400081B0044608BAA168009020691144814235
:100450004FF0000527D861681646471AE268B74290
:10046000B14638BFB946F01BE84628BF05465018CC
:1004700041464A46FFF794FEB74209D2E06808EBCE
:1004800009012A46FFF78CFEA0683044A06008E00E
:10049000D4E90101226948443144851AA16018BF9A
:1004A000054665600125284601B0BDE8F0830000DF
:1004B00080B582688AB10368D0E9031C013A11F85B
:1004C00003E00133ACF1010103608B42826084BF21
:1004D000002101605FFA8EF080BD5FFA8EF080BD72
:1004E0002DE9F04381B004468068002690421ED377
:1004F000154688462068D4E90321A9460F1AAF4261
:1005000038BFB946E91B28BF0E46111840464A4677
:10051000FFF746FEAF420ED2E16808EB0900324613
:10052000FFF73EFEA0682660401B0126A060304613
:1005300001B0BDE8F0832068A1682269491B4844E6
:10054000A160811A18BF01460120216001B0BDE8F9
:10055000F083000002698368013A934204BF0020DF
:1005600070474268C3689954D0E9011203690132A7
:100570000131013B994288BF0021C0E901120120ED
:10058000704700002DE9F04381B088468168044639
:100590000069114481424FF000061CD8616815467D
:1005A000471AE268AF42A94638BFB946E81B28BFE0
:1005B0000646501841464A46FFF7F2FDAF420ED2BA
:1005C000E06808EB09013246FFF7EAFDA06828441D
:1005D000C4E901600126304601B0BDE8F083D4E9EA
:1005E0000101226948442944821A18BF0246626008
:1005F0000120A16001B0BDE8F08300007047000059
:1006000000F0ECB941F20400C4F2020050F8041CFE
:1006100041F0010140F8041C50F8041C89075FBF39
:1006200050F8041C5FEA817150F8041C5FEA817184
:1006300003D450F8041C8907EED501680C22C0F6DB
:10064000FF021140016001684FF6FF72CFF2C072E5
:100650001140016001684FF6FF7221F44001016012
:1006600050F8041CCFF6F262114040F8041C816A75
:1006700040F2431221F00F018162C16A9143C162CD
:10068000016B21F0010101630021416050F8041C5D
:1006900041F4803140F8041C40F2FC7150F8042C05
:1006A00092035FBF50F8042C5FEA823250F8042CAA
:1006B0005FEA823207D450F8042C21B112F40032E0
:1006C000A1F10401EAD050F8041C890358BF704717
:1006D00001684FF6FF7201600168C7F2C2720160E3
:1006E00001680160016811400160016841F4E8118E
:1006F000016050F8041C41F0807140F8041C00BFF8
:1007000050F8041C89015FBF50F8041C5FEA811196
:1007100050F8041C5FEA811103D450F8041C8901CD
:10072000EED5016821F003010160016841F002018A
:1007300001600168090709D4016809075CBF016805
:100740005FEA017102D401680907F2D57047000021
:1007500040F20800C2F2000000F090B810B584B07A
:1007600040F20E6000F004FC40F2115000F000FC7A
:1007700040F2115000F0FCFB4FF0904001214FF48B
:10078000007200F037F94FF09040022101224FF43F
:10079000007300F097F94FF09040002103224FF4CE
:1007A000007300F063FA4FF0904001214FF4806233
:1007B00000F020F94FF09040022100224FF48063B6
:1007C00000F080F943F60004C4F2010420464FF41F
:1007D000E13100F001FC2046082100F079FC2046C0
:1007E000042100F06DFC204600F02EFC40F20800D1
:1007F000C2F200004FF0400C40F2041100F13C0244
:10080000C2F20001CDE9002C42F233320291CAF665
:10081000AB3221460423CDF80CC000F089F81B2030
:100820000221022200F0A0FA2046072100F020FC5D
:100830002046052100F01CFC2046042104B0BDE840
:10084000104000F015BC000010B5044640F208004E
:10085000C2F20000214600F087F80021215410BDAB
:1008600010B50446FFF7AEFC024640F20800C2F2A3
:1008700000002146BDE8104000F092B8006B7047C0
:10088000F0B581B004250446C0F20475006805F196
:10089000031100F003FCC0B104F118063046FFF765
:1008A000BFFD58B10120276884F82C003046FFF7BF
:1008B000FFFD0146384600F0C3FB06E0002120683A
:1008C00084F82C10072100F0C5FB206805F1011603
:1008D000314600F0E3FB70B1012084F82D00206860
:1008E000271D00F0A9FBC1B23846FFF733FE206890
:1008F000314600F0C9FB2068294600F0CFFBA0B1CB
:100900000021206884F82D10294600F0BDFB251D2C
:100910002846FFF785FD40B1616B94F838202846E2
:10092000FFF78CFD206B0130206301B0F0BD0000AB
:100930002DE9F0411C461546DDE906320646DDE9A3
:10094000087840F8041B1946FFF76CFD06F1180003
:1009500039464246FFF766FD0020B085C6E90C0522
:1009600086F83840BDE8F081F0B581B00C46416BA7
:1009700090F83820061D05463046FFF76BFC471EF1
:10098000304621463A46FFF7ABFD95F83810304621
:10099000FFF74AFC286B411E3846296301B0F0BDC1
:1009A00010B504461830FFF7EDFD216804460846EF
:1009B000072100F05DFB002C18BF0124204610BD6C
:1009C00040F20800C2F20000FFF75ABF40F2880070
:1009D000C2F20000FFF754BFFEE7000040F28400BF
:1009E000C2F200000168002908BF704701680139A0
:1009F0000160704710B5036AD40723F00F0ED0F8DA
:100A000024C018BF4EEA010323F0F00E940748BF3C
:100A10004EEA011323F4706E540748BF4EEA0123D7
:100A200023F4704E140748BF4EEA013323F4702EAE
:100A3000D40648BF4EEA014323F4700E940648BF23
:100A40004EEA015323F0706E540648BF4EEA01632C
:100A500023F0704E140648BF4EEA01732CF00F0EBF
:100A6000D40548BF4EEA010C2CF0F00E940548BFA7
:100A70004EEA011C2CF4706E540548BF4EEA012C5E
:100A80002CF4704E140548BF4EEA013C2CF4702E35
:100A9000D40448BF4EEA014C2CF4700E940448BFB5
:100AA0004EEA015C2CF0706E540448BF4EEA016CB3
:100AB0002CF07044120448BF44EA017C0362C0F881
:100AC00024C010BDB0B5D0F800C0D0F80CE013F0D1
:100AD00001042CF003042EF003051CBF44EA010CB2
:100AE00045EA020E9C0723D45C072BD41C0733D4A1
:100AF000DC063BD49C0643D45C064BD41C0653D482
:100B0000DC055BD49C0563D45C056BD41C0573D4F5
:100B1000DC047CD49C0400F185805C0400F18D80B1
:100B20001B0400F19580C0F800C0C0F80CE0B0BD17
:100B30002CF00C0545EA810C2EF00C0545EA820EDE
:100B40005C07D3D52CF0300545EA011C2EF03005AA
:100B500045EA021E1C07CBD52CF0C00545EA811CD6
:100B60002EF0C00545EA821EDC06C3D52CF4407584
:100B700045EA012C2EF4407545EA022E9C06BBD5B1
:100B80002CF4406545EA812C2EF4406545EA822E1E
:100B90005C06B3D52CF4405545EA013C2EF4405593
:100BA00045EA023E1C06ABD52CF4404545EA813CA3
:100BB0002EF4404545EA823EDC05A3D52CF44035B1
:100BC00045EA014C2EF4403545EA024E9C059BD582
:100BD0002CF4402545EA814C2EF4402545EA824E0E
:100BE0005C0593D52CF4401545EA015C2EF44015C4
:100BF00045EA025E1C058BD52CF4400545EA815C74
:100C00002EF4400545EA825EDC047FF583AF2CF0CC
:100C1000407545EA016C2EF0407545EA026E9C0471
:100C20007FF57BAF2CF0406545EA816C2EF0406586
:100C300045EA826E5C047FF573AF2CF0405545EABF
:100C4000017C2EF0405545EA027E1B047FF56BAF18
:100C50002CF0404343EA817C2EF0404141EA827E01
:100C6000C0F800C0C0F80CE0B0BD000080B501299C
:100C7000416814BF994319434160D0F808E0D9078F
:100C80002EF0030C18BF4CEA020E2EF00C0C990744
:100C900048BF4CEA820E2EF0300C590748BF4CEA90
:100CA000021E2EF0C00C190748BF4CEA821E2EF41B
:100CB000407CD90648BF4CEA022E2EF4406C9906BF
:100CC00048BF4CEA822E2EF4405C590648BF4CEADD
:100CD000023E2EF4404C190648BF4CEA823E2EF4E8
:100CE000403CD90548BF4CEA024E2EF4402C9905F1
:100CF00048BF4CEA824E2EF4401C590548BF4CEACE
:100D0000025E2EF4400C190548BF4CEA825E2EF0BC
:100D1000407CD90448BF4CEA026E2EF0406C990426
:100D200048BF4CEA826E2EF0405C590448BF4CEA42
:100D3000027E2EF040411B0448BF41EA827EC0F88B
:100D400008E080BDFFF758FA40F2C404C2F2000484
:100D5000FFF7FEFC0028FBD02046FFF775FD20467C
:100D6000FFF77EFDF4E700004EF60C5CCEF2000CBF
:100D7000DCF8003003F4E063B3F5E06F03D14FF02B
:100D8000000C04232BE0DCF8003003F4E063B3F53F
:100D9000C06F03D14FF0010C032320E0DCF80030DA
:100DA00003F4E063B3F5A06F03D102234FF0020C0C
:100DB00015E0DCF8003003F4E063B3F5806F03D195
:100DC0004FF0030C01230AE0DCF800304FF0040C74
:100DD00003F4E063B3F5407318BF01239B0099400F
:100DE0000F2323FA0CF31A4011434EF20012CEF2F5
:100DF0000002090140EA020383F8001300F01F011A
:100E0000012303FA01F11C2303EAD000815070474B
:100E100040F080604EF60C5140F0FD70CEF20001C3
:100E200008607047F0B541F20403C4F20203196888
:100E3000024641F20020C0F27A0001F00C010829BC
:100E4000014619D119681E681D6836014FF0110658
:100E5000C1F3834158BF0226ED03314405D440F667
:100E60000016C0F23D06714306E09E6A06F00F06CA
:100E70000136B0FBF6F671431E68D3F800E01D683A
:100E8000062A1FD8C6F3031635A4A65D41F2FE0755
:100E9000C0F60007C5F3C22521FA06F47D5D24FAE9
:100EA00005FCDFE802F00413152E061C25008C4615
:100EB00027E0D86AC00526D449F6807CC0F2D50C5C
:100EC0006046F0BD4FF0000C6046F0BD2046F0BD1E
:100ED000CEF30220385C24FA00FC6046F0BDD86AEC
:100EE0004FF4004C400658BF48F2120C6046F0BD6B
:100EF000DA6A920705D0DA6A8C4602F00302012A08
:100F00000CD16046F0BD1868C0F38130DFE800F016
:100F100002161A244FEA5C0C6046F0BDD96A01F053
:100F20000301022903D14FF4004C6046F0BDD96A99
:100F300001F00301032918BF0020F0BD4FEA9C0C0B
:100F40006046F0BD4AF6AB20CAF6AA20ACFB000111
:100F50004FEA910C6046F0BD4FEADC0C6046F0BDF4
:100F60000000000000000000010203040607080959
:100F700041F2000300F01F018009C4F202034FF0A8
:100F8000010CC2580CFA01F11143C1507047000026
:100F900040F20000C2F20000006844F6D351C1F2F2
:100FA0006201A0FB01014FF0FF3000EB9110B0F1A6
:100FB000807F00D3FEE74EF21001CEF200014860C0
:100FC0004EF62350CEF20000F022027000220723DA
:100FD0008A600B6002707047B0B5044643F60000AB
:100FE000C4F2010084420D4607D044F20040C4F22E
:100FF000000084420ED1022000E00620FFF712FF1D
:10100000216809040AD400EB5500B0FBF5F080B26A
:10101000E060B0BD002021680904F4D5400000EB79
:101020005500B0FBF5F04FF6F0710140C0F34200FF
:101030000844E060B0BD0000406A6FF35F20704775
:101040006FF35F2181627047016841F00101016027
:101050007047000001F01F02C1F389114FF0010C2D
:101060000B580CFA02F223EA02020A507047000001
:1010700001F01F02C1F389114FF0010C0B580CFA5B
:1010800002F21A430A507047C1F304410122036A75
:1010900002FA01F11943016270470000C1F389129D
:1010A00052F800C08A0D105801F01F03C1F304412B
:1010B000C8402CFA03F1084000F00100704700001E
:1010C000026822F004020260026811430160704766
:1010D000026822F008020260026811430160704752
:1010E00002E008C8121F08C1002AFAD170477047F1
:1010F000002001E001C1121F002AFBD1704700004F
:101100000000010203040000281100080000002074
:1011100008000000E010000830110008080000205E
:1011200040050000F010000800A24A040000000082
:040000050800016985
:00000001FF
